:100000000C942A000C943C000C943C000C943C0092
:100010000C943C000C943C000C943C000C943C0070
:100020000C943C000C943C000C943C000C943C0060
:100030000C943C000C943C000C943C000C943C0050
:100040000C943C000C943C000C943C000C943C0040
:100050000C943C0011241FBECFE5D8E0DEBFCDBF1D
:1000600020E0A0E6B0E001C01D92A136B207E1F7A2
:100070000E94D6010C943B020C940000823419F1CA
:1000800018F4813439F008958334B1F1843409F4DB
:100090004CC00895413059F42AB381E090E002C089
:1000A000880F991F6A95E2F7822B8ABB08952AB3BD
:1000B00081E090E002C0880F991F6A95E2F7809571
:1000C00082238ABB0895413059F427B381E090E040
:1000D00002C0880F991F6A95E2F7822B87BB0895AB
:1000E00027B381E090E002C0880F991F6A95E2F77C
:1000F0008095822387BB0895413059F424B381E071
:1001000090E002C0880F991F6A95E2F7822B84BBAA
:10011000089524B381E090E002C0880F991F6A958A
:10012000E2F78095822384BB0895413059F421B3CE
:1001300081E090E002C0880F991F6A95E2F7822B58
:1001400081BB089521B381E090E002C0880F991F20
:100150006A95E2F78095822381BB0895823419F174
:1001600018F4813439F008958334B1F1843409F4FA
:100170004CC00895413059F42BB381E090E002C0A7
:10018000880F991F6A95E2F7822B8BBB08952BB3DA
:1001900081E090E002C0880F991F6A95E2F7809590
:1001A00082238BBB0895413059F428B381E090E05D
:1001B00002C0880F991F6A95E2F7822B88BB0895C9
:1001C00028B381E090E002C0880F991F6A95E2F79A
:1001D0008095822388BB0895413059F425B381E08E
:1001E00090E002C0880F991F6A95E2F7822B85BBC9
:1001F000089525B381E090E002C0880F991F6A95A9
:10020000E2F78095822385BB0895413059F422B3EB
:1002100081E090E002C0880F991F6A95E2F7822B77
:1002200082BB089522B381E090E002C0880F991F3D
:100230006A95E2F78095822382BB0895823459F053
:1002400018F4813431F00895833439F0843439F06E
:1002500008956BBB089568BB089565BB089562BBA4
:10026000089541E060E082E40E94AE008FE99FE0E3
:100270000197F1F700C0000040E060E082E40E94D6
:10028000AE008FE99FE00197F1F700C000000895EC
:10029000682F81E40E941E0140E061E082E40E9438
:1002A000AE000E9431018FEC97E00197F1F700C09A
:1002B000000008952FEF81EE94E02150804090409F
:1002C000E1F700C0000041E060E081E40E943E00F0
:1002D00041E061E081E40E943E0041E062E081E4AF
:1002E0000E943E0041E063E081E40E943E0041E064
:1002F00064E081E40E943E0041E065E081E40E9408
:100300003E0041E066E081E40E943E0041E067E09B
:1003100081E40E943E0041E060E082E40E943E00F1
:1003200041E062E082E40E943E0041E061E082E45C
:100330000E943E0040E062E082E40E94AE0088E35A
:100340000E9448018FEC97E00197F1F700C0000090
:100350008CE00E9448018FEC97E00197F1F700C014
:10036000000081E00E9448018FE19EE40197F1F7CF
:1003700000C0000086E00E9448018FEC97E00197E2
:10038000F1F700C000000895682F81E40E941E016B
:1003900041E061E082E40E94AE000E9431018FECF6
:1003A00097E00197F1F700C0000008950E945A01FC
:1003B00060E875E280E090E00E94E6010E9415028C
:1003C0008093600090E00E94C401F8CFDC01CB0173
:1003D000880F991FAA1FBB1F880F991FAA1FBB1F39
:1003E0009C01AD01220F331F441F551F220F331FE5
:1003F000441F551F60E072E18AE790E00E941902F5
:10040000BA01A9014150510961097109BB27A72F00
:10041000962F852F80BD49B98AB180618AB98AB18A
:1004200088608AB986E880BD08955F9BFECF8CB155
:100430000895A1E21A2EAA1BBB1BFD010DC0AA1F25
:10044000BB1FEE1FFF1FA217B307E407F50720F03D
:10045000A21BB30BE40BF50B661F771F881F991FB8
:100460001A9469F760957095809590959B01AC0101
:0A047000BD01CF010895F894FFCFFD
:00000001FF
